{
  "contractName": "Collectibles",
  "abi": [
    {
      "constant": true,
      "inputs": [
        {
          "name": "",
          "type": "uint256"
        }
      ],
      "name": "colls",
      "outputs": [
        {
          "name": "name",
          "type": "string"
        },
        {
          "name": "desc",
          "type": "string"
        },
        {
          "name": "imgLink",
          "type": "string"
        },
        {
          "name": "price",
          "type": "uint256"
        }
      ],
      "payable": false,
      "stateMutability": "view",
      "type": "function"
    },
    {
      "constant": true,
      "inputs": [
        {
          "name": "",
          "type": "uint256"
        }
      ],
      "name": "colToOwner",
      "outputs": [
        {
          "name": "",
          "type": "address"
        }
      ],
      "payable": false,
      "stateMutability": "view",
      "type": "function"
    },
    {
      "constant": true,
      "inputs": [],
      "name": "owner",
      "outputs": [
        {
          "name": "",
          "type": "address"
        }
      ],
      "payable": false,
      "stateMutability": "view",
      "type": "function"
    },
    {
      "constant": false,
      "inputs": [
        {
          "name": "newOwner",
          "type": "address"
        }
      ],
      "name": "transferOwnership",
      "outputs": [],
      "payable": false,
      "stateMutability": "nonpayable",
      "type": "function"
    },
    {
      "anonymous": false,
      "inputs": [
        {
          "indexed": true,
          "name": "previousOwner",
          "type": "address"
        },
        {
          "indexed": true,
          "name": "newOwner",
          "type": "address"
        }
      ],
      "name": "OwnershipTransferred",
      "type": "event"
    },
    {
      "constant": false,
      "inputs": [
        {
          "name": "name",
          "type": "string"
        },
        {
          "name": "desc",
          "type": "string"
        },
        {
          "name": "price",
          "type": "uint256"
        },
        {
          "name": "imgLink",
          "type": "string"
        }
      ],
      "name": "_createCol",
      "outputs": [],
      "payable": false,
      "stateMutability": "nonpayable",
      "type": "function"
    }
  ],
  "bytecode": "0x6060604052336000806101000a81548173ffffffffffffffffffffffffffffffffffffffff021916908373ffffffffffffffffffffffffffffffffffffffff160217905550610906806100536000396000f30060606040526004361061006d576000357c0100000000000000000000000000000000000000000000000000000000900463ffffffff1680631223c10414610072578063777e1659146102445780638da5cb5b146102a7578063c0d0e2e9146102fc578063f2fde38b146103e8575b600080fd5b341561007d57600080fd5b6100936004808035906020019091905050610421565b6040518080602001806020018060200185815260200184810384528881815460018160011615610100020316600290048152602001915080546001816001161561010002031660029004801561012a5780601f106100ff5761010080835404028352916020019161012a565b820191906000526020600020905b81548152906001019060200180831161010d57829003601f168201915b50508481038352878181546001816001161561010002031660029004815260200191508054600181600116156101000203166002900480156101ad5780601f10610182576101008083540402835291602001916101ad565b820191906000526020600020905b81548152906001019060200180831161019057829003601f168201915b50508481038252868181546001816001161561010002031660029004815260200191508054600181600116156101000203166002900480156102305780601f1061020557610100808354040283529160200191610230565b820191906000526020600020905b81548152906001019060200180831161021357829003601f168201915b505097505050505050505060405180910390f35b341561024f57600080fd5b610265600480803590602001909190505061045d565b604051808273ffffffffffffffffffffffffffffffffffffffff1673ffffffffffffffffffffffffffffffffffffffff16815260200191505060405180910390f35b34156102b257600080fd5b6102ba610490565b604051808273ffffffffffffffffffffffffffffffffffffffff1673ffffffffffffffffffffffffffffffffffffffff16815260200191505060405180910390f35b341561030757600080fd5b6103e6600480803590602001908201803590602001908080601f0160208091040260200160405190810160405280939291908181526020018383808284378201915050505050509190803590602001908201803590602001908080601f0160208091040260200160405190810160405280939291908181526020018383808284378201915050505050509190803590602001909190803590602001908201803590602001908080601f016020809104026020016040519081016040528093929190818152602001838380828437820191505050505050919050506104b5565b005b34156103f357600080fd5b61041f600480803573ffffffffffffffffffffffffffffffffffffffff1690602001909190505061060f565b005b60018181548110151561043057fe5b90600052602060002090600402016000915090508060000190806001019080600201908060030154905084565b60026020528060005260406000206000915054906101000a900473ffffffffffffffffffffffffffffffffffffffff1681565b6000809054906101000a900473ffffffffffffffffffffffffffffffffffffffff1681565b6000600180548060010182816104cb9190610764565b91600052602060002090600402016000608060405190810160405280898152602001888152602001868152602001878152509091909150600082015181600001908051906020019061051e929190610796565b50602082015181600101908051906020019061053b929190610796565b506040820151816002019080519060200190610558929190610796565b506060820151816003015550509050336002600083815260200190815260200160002060006101000a81548173ffffffffffffffffffffffffffffffffffffffff021916908373ffffffffffffffffffffffffffffffffffffffff160217905550600360003373ffffffffffffffffffffffffffffffffffffffff1673ffffffffffffffffffffffffffffffffffffffff168152602001908152602001600020600081548092919060010191905055505050505050565b6000809054906101000a900473ffffffffffffffffffffffffffffffffffffffff1673ffffffffffffffffffffffffffffffffffffffff163373ffffffffffffffffffffffffffffffffffffffff1614151561066a57600080fd5b600073ffffffffffffffffffffffffffffffffffffffff168173ffffffffffffffffffffffffffffffffffffffff16141515156106a657600080fd5b8073ffffffffffffffffffffffffffffffffffffffff166000809054906101000a900473ffffffffffffffffffffffffffffffffffffffff1673ffffffffffffffffffffffffffffffffffffffff167f8be0079c531659141344cd1fd0a4f28419497f9722a3daafe3b4186f6b6457e060405160405180910390a3806000806101000a81548173ffffffffffffffffffffffffffffffffffffffff021916908373ffffffffffffffffffffffffffffffffffffffff16021790555050565b815481835581811511610791576004028160040283600052602060002091820191016107909190610816565b5b505050565b828054600181600116156101000203166002900490600052602060002090601f016020900481019282601f106107d757805160ff1916838001178555610805565b82800160010185558215610805579182015b828111156108045782518255916020019190600101906107e9565b5b509050610812919061086d565b5090565b61086a91905b8082111561086657600080820160006108359190610892565b6001820160006108459190610892565b6002820160006108559190610892565b60038201600090555060040161081c565b5090565b90565b61088f91905b8082111561088b576000816000905550600101610873565b5090565b90565b50805460018160011615610100020316600290046000825580601f106108b857506108d7565b601f0160209004906000526020600020908101906108d6919061086d565b5b505600a165627a7a72305820ff66356c10783397e765d84b417cce24316f86c2bceb8747e8d38d52424588b60029",
  "source": "pragma solidity ^0.4.18;\n\nimport \"./Ownable.sol\";\n\ncontract Collectibles is Ownable{\n\n\tstruct Collectible{\n\t\tstring name;\n\t\tstring desc;\n\t\tstring imgLink;\n\t\tuint price;\n\n\t}\n\n\tCollectible[] public colls;\n\n    mapping (uint => address) public colToOwner;\n    mapping (address => uint) ownerColCount;\n\n    function _createCol(string name, string desc, uint price, string imgLink) public{\n    \tuint id = colls.push(Collectible(name, desc, imgLink, price));\n    \tcolToOwner[id] = msg.sender;\n        ownerColCount[msg.sender]++;\n    }\n\n}\n\n\n\n",
  "sourcePath": "/Users/zeeshanhanif/CornellTech/StartupStudio/studio/contracts/Collectible.sol",
  "compiler": {
    "name": "solc",
    "version": "0.4.19+commit.c4cbbb05.Emscripten.clang"
  },
  "schemaVersion": "2.0.0",
  "updatedAt": "2018-03-22T03:19:13.409Z"
}