{
  "contractName": "Collection",
  "abi": [
    {
      "constant": true,
      "inputs": [
        {
          "name": "",
          "type": "uint256"
        }
      ],
      "name": "colls",
      "outputs": [
        {
          "name": "name",
          "type": "string"
        },
        {
          "name": "desc",
          "type": "string"
        },
        {
          "name": "imgLink",
          "type": "string"
        },
        {
          "name": "price",
          "type": "uint256"
        }
      ],
      "payable": false,
      "stateMutability": "view",
      "type": "function"
    },
    {
      "constant": true,
      "inputs": [
        {
          "name": "",
          "type": "uint256"
        }
      ],
      "name": "colToOwner",
      "outputs": [
        {
          "name": "",
          "type": "address"
        }
      ],
      "payable": false,
      "stateMutability": "view",
      "type": "function"
    },
    {
      "constant": true,
      "inputs": [],
      "name": "state",
      "outputs": [
        {
          "name": "",
          "type": "uint256"
        }
      ],
      "payable": false,
      "stateMutability": "view",
      "type": "function"
    },
    {
      "constant": true,
      "inputs": [
        {
          "name": "",
          "type": "uint256"
        }
      ],
      "name": "Collectibles",
      "outputs": [
        {
          "name": "name",
          "type": "string"
        },
        {
          "name": "desc",
          "type": "string"
        },
        {
          "name": "imgLink",
          "type": "string"
        },
        {
          "name": "price",
          "type": "uint256"
        }
      ],
      "payable": false,
      "stateMutability": "view",
      "type": "function"
    },
    {
      "constant": false,
      "inputs": [
        {
          "name": "name",
          "type": "string"
        },
        {
          "name": "desc",
          "type": "string"
        },
        {
          "name": "price",
          "type": "uint256"
        },
        {
          "name": "imgLink",
          "type": "string"
        }
      ],
      "name": "_createCol",
      "outputs": [],
      "payable": false,
      "stateMutability": "nonpayable",
      "type": "function"
    },
    {
      "constant": true,
      "inputs": [],
      "name": "getCol",
      "outputs": [
        {
          "name": "",
          "type": "uint256"
        }
      ],
      "payable": false,
      "stateMutability": "view",
      "type": "function"
    }
  ],
  "bytecode": "0x6060604052341561000f57600080fd5b61097c8061001e6000396000f300606060405260043610610078576000357c0100000000000000000000000000000000000000000000000000000000900463ffffffff1680631223c1041461007d578063777e16591461024f578063c0d0e2e9146102b2578063c19d93fb1461039e578063c6caf51f146103c7578063d969486f146103f0575b600080fd5b341561008857600080fd5b61009e60048080359060200190919050506105c2565b604051808060200180602001806020018581526020018481038452888181546001816001161561010002031660029004815260200191508054600181600116156101000203166002900480156101355780601f1061010a57610100808354040283529160200191610135565b820191906000526020600020905b81548152906001019060200180831161011857829003601f168201915b50508481038352878181546001816001161561010002031660029004815260200191508054600181600116156101000203166002900480156101b85780601f1061018d576101008083540402835291602001916101b8565b820191906000526020600020905b81548152906001019060200180831161019b57829003601f168201915b505084810382528681815460018160011615610100020316600290048152602001915080546001816001161561010002031660029004801561023b5780601f106102105761010080835404028352916020019161023b565b820191906000526020600020905b81548152906001019060200180831161021e57829003601f168201915b505097505050505050505060405180910390f35b341561025a57600080fd5b61027060048080359060200190919050506105fe565b604051808273ffffffffffffffffffffffffffffffffffffffff1673ffffffffffffffffffffffffffffffffffffffff16815260200191505060405180910390f35b34156102bd57600080fd5b61039c600480803590602001908201803590602001908080601f0160208091040260200160405190810160405280939291908181526020018383808284378201915050505050509190803590602001908201803590602001908080601f0160208091040260200160405190810160405280939291908181526020018383808284378201915050505050509190803590602001909190803590602001908201803590602001908080601f01602080910402602001604051908101604052809392919081815260200183838082843782019150505050505091905050610631565b005b34156103a957600080fd5b6103b161079d565b6040518082815260200191505060405180910390f35b34156103d257600080fd5b6103da6107a3565b6040518082815260200191505060405180910390f35b34156103fb57600080fd5b61041160048080359060200190919050506107ad565b604051808060200180602001806020018581526020018481038452888181546001816001161561010002031660029004815260200191508054600181600116156101000203166002900480156104a85780601f1061047d576101008083540402835291602001916104a8565b820191906000526020600020905b81548152906001019060200180831161048b57829003601f168201915b505084810383528781815460018160011615610100020316600290048152602001915080546001816001161561010002031660029004801561052b5780601f106105005761010080835404028352916020019161052b565b820191906000526020600020905b81548152906001019060200180831161050e57829003601f168201915b50508481038252868181546001816001161561010002031660029004815260200191508054600181600116156101000203166002900480156105ae5780601f10610583576101008083540402835291602001916105ae565b820191906000526020600020905b81548152906001019060200180831161059157829003601f168201915b505097505050505050505060405180910390f35b6000818154811015156105d157fe5b90600052602060002090600402016000915090508060000190806001019080600201908060030154905084565b60036020528060005260406000206000915054906101000a900473ffffffffffffffffffffffffffffffffffffffff1681565b60006001600081548092919060010191905055506000805480600101828161065991906107da565b9160005260206000209060040201600060806040519081016040528089815260200188815260200186815260200187815250909190915060008201518160000190805190602001906106ac92919061080c565b5060208201518160010190805190602001906106c992919061080c565b5060408201518160020190805190602001906106e692919061080c565b506060820151816003015550509050336003600083815260200190815260200160002060006101000a81548173ffffffffffffffffffffffffffffffffffffffff021916908373ffffffffffffffffffffffffffffffffffffffff160217905550600460003373ffffffffffffffffffffffffffffffffffffffff1673ffffffffffffffffffffffffffffffffffffffff168152602001908152602001600020600081548092919060010191905055505050505050565b60015481565b6000600154905090565b60026020528060005260406000206000915090508060000190806001019080600201908060030154905084565b81548183558181151161080757600402816004028360005260206000209182019101610806919061088c565b5b505050565b828054600181600116156101000203166002900490600052602060002090601f016020900481019282601f1061084d57805160ff191683800117855561087b565b8280016001018555821561087b579182015b8281111561087a57825182559160200191906001019061085f565b5b50905061088891906108e3565b5090565b6108e091905b808211156108dc57600080820160006108ab9190610908565b6001820160006108bb9190610908565b6002820160006108cb9190610908565b600382016000905550600401610892565b5090565b90565b61090591905b808211156109015760008160009055506001016108e9565b5090565b90565b50805460018160011615610100020316600290046000825580601f1061092e575061094d565b601f01602090049060005260206000209081019061094c91906108e3565b5b505600a165627a7a723058202c35de6f0d4b65ab65a792a50a10077b299ad0ca83d4a3562cea0edb20c75c8e0029",
  "source": "pragma solidity ^0.4.18;\n\ncontract Collection{\n\n\tstruct Collectible{\n\t\tstring name;\n\t\tstring desc;\n\t\tstring imgLink;\n\t\tuint price;\n\n\t}\n\n\tCollectible[] public colls;\n\n\tuint public state;\n\tmapping (uint => Collectible) public Collectibles;\n    mapping (uint => address) public colToOwner;\n    mapping (address => uint) ownerColCount;\n\n    function _createCol(string name, string desc, uint price, string imgLink) public{\n    \tstate++;\n    \tuint id = colls.push(Collectible(name, desc, imgLink, price));\n    \tcolToOwner[id] = msg.sender;\n        ownerColCount[msg.sender]++;\n    }\n\n    function getCol() public view returns (uint) {\n    \treturn state;\n    }\n\n}\n\n\n\n",
  "sourcePath": "/Users/zeeshanhanif/CornellTech/StartupStudio/studio/contracts/Collection.sol",
  "compiler": {
    "name": "solc",
    "version": "0.4.19+commit.c4cbbb05.Emscripten.clang"
  },
  "schemaVersion": "2.0.0",
  "updatedAt": "2018-03-22T20:59:12.393Z"
}