{
  "contractName": "Collection",
  "abi": [
    {
      "constant": true,
      "inputs": [
        {
          "name": "",
          "type": "uint256"
        }
      ],
      "name": "colls",
      "outputs": [
        {
          "name": "name",
          "type": "string"
        },
        {
          "name": "desc",
          "type": "string"
        },
        {
          "name": "imgLink",
          "type": "string"
        },
        {
          "name": "price",
          "type": "uint256"
        }
      ],
      "payable": false,
      "stateMutability": "view",
      "type": "function"
    },
    {
      "constant": true,
      "inputs": [
        {
          "name": "",
          "type": "uint256"
        }
      ],
      "name": "collectibleToOwner",
      "outputs": [
        {
          "name": "",
          "type": "address"
        }
      ],
      "payable": false,
      "stateMutability": "view",
      "type": "function"
    },
    {
      "constant": true,
      "inputs": [],
      "name": "state",
      "outputs": [
        {
          "name": "",
          "type": "uint256"
        }
      ],
      "payable": false,
      "stateMutability": "view",
      "type": "function"
    },
    {
      "constant": true,
      "inputs": [
        {
          "name": "",
          "type": "uint256"
        }
      ],
      "name": "creators",
      "outputs": [
        {
          "name": "",
          "type": "address"
        }
      ],
      "payable": false,
      "stateMutability": "view",
      "type": "function"
    },
    {
      "constant": true,
      "inputs": [
        {
          "name": "",
          "type": "uint256"
        }
      ],
      "name": "Collectibles",
      "outputs": [
        {
          "name": "name",
          "type": "string"
        },
        {
          "name": "desc",
          "type": "string"
        },
        {
          "name": "imgLink",
          "type": "string"
        },
        {
          "name": "price",
          "type": "uint256"
        }
      ],
      "payable": false,
      "stateMutability": "view",
      "type": "function"
    },
    {
      "constant": false,
      "inputs": [
        {
          "name": "name",
          "type": "string"
        },
        {
          "name": "desc",
          "type": "string"
        },
        {
          "name": "price",
          "type": "uint256"
        },
        {
          "name": "imgLink",
          "type": "string"
        }
      ],
      "name": "_createCol",
      "outputs": [],
      "payable": false,
      "stateMutability": "nonpayable",
      "type": "function"
    },
    {
      "constant": true,
      "inputs": [],
      "name": "getCol",
      "outputs": [
        {
          "name": "",
          "type": "uint256"
        }
      ],
      "payable": false,
      "stateMutability": "view",
      "type": "function"
    }
  ],
  "bytecode": "0x6060604052341561000f57600080fd5b610a6f8061001e6000396000f300606060405260043610610083576000357c0100000000000000000000000000000000000000000000000000000000900463ffffffff1680631223c1041461008857806327fbc6371461025a578063c0d0e2e9146102bd578063c19d93fb146103a9578063c6caf51f146103d2578063cd53d08e146103fb578063d969486f1461045e575b600080fd5b341561009357600080fd5b6100a96004808035906020019091905050610630565b604051808060200180602001806020018581526020018481038452888181546001816001161561010002031660029004815260200191508054600181600116156101000203166002900480156101405780601f1061011557610100808354040283529160200191610140565b820191906000526020600020905b81548152906001019060200180831161012357829003601f168201915b50508481038352878181546001816001161561010002031660029004815260200191508054600181600116156101000203166002900480156101c35780601f10610198576101008083540402835291602001916101c3565b820191906000526020600020905b8154815290600101906020018083116101a657829003601f168201915b50508481038252868181546001816001161561010002031660029004815260200191508054600181600116156101000203166002900480156102465780601f1061021b57610100808354040283529160200191610246565b820191906000526020600020905b81548152906001019060200180831161022957829003601f168201915b505097505050505050505060405180910390f35b341561026557600080fd5b61027b600480803590602001909190505061066c565b604051808273ffffffffffffffffffffffffffffffffffffffff1673ffffffffffffffffffffffffffffffffffffffff16815260200191505060405180910390f35b34156102c857600080fd5b6103a7600480803590602001908201803590602001908080601f0160208091040260200160405190810160405280939291908181526020018383808284378201915050505050509190803590602001908201803590602001908080601f0160208091040260200160405190810160405280939291908181526020018383808284378201915050505050509190803590602001909190803590602001908201803590602001908080601f0160208091040260200160405190810160405280939291908181526020018383808284378201915050505050509190505061069f565b005b34156103b457600080fd5b6103bc61085d565b6040518082815260200191505060405180910390f35b34156103dd57600080fd5b6103e5610863565b6040518082815260200191505060405180910390f35b341561040657600080fd5b61041c600480803590602001909190505061086d565b604051808273ffffffffffffffffffffffffffffffffffffffff1673ffffffffffffffffffffffffffffffffffffffff16815260200191505060405180910390f35b341561046957600080fd5b61047f60048080359060200190919050506108a0565b604051808060200180602001806020018581526020018481038452888181546001816001161561010002031660029004815260200191508054600181600116156101000203166002900480156105165780601f106104eb57610100808354040283529160200191610516565b820191906000526020600020905b8154815290600101906020018083116104f957829003601f168201915b50508481038352878181546001816001161561010002031660029004815260200191508054600181600116156101000203166002900480156105995780601f1061056e57610100808354040283529160200191610599565b820191906000526020600020905b81548152906001019060200180831161057c57829003601f168201915b505084810382528681815460018160011615610100020316600290048152602001915080546001816001161561010002031660029004801561061c5780601f106105f15761010080835404028352916020019161061c565b820191906000526020600020905b8154815290600101906020018083116105ff57829003601f168201915b505097505050505050505060405180910390f35b60008181548110151561063f57fe5b90600052602060002090600402016000915090508060000190806001019080600201908060030154905084565b60046020528060005260406000206000915054906101000a900473ffffffffffffffffffffffffffffffffffffffff1681565b6000600160008154809291906001019190505550600080548060010182816106c791906108cd565b91600052602060002090600402016000608060405190810160405280898152602001888152602001868152602001878152509091909150600082015181600001908051906020019061071a9291906108ff565b5060208201518160010190805190602001906107379291906108ff565b5060408201518160020190805190602001906107549291906108ff565b506060820151816003015550509050336002600083815260200190815260200160002060006101000a81548173ffffffffffffffffffffffffffffffffffffffff021916908373ffffffffffffffffffffffffffffffffffffffff160217905550336004600083815260200190815260200160002060006101000a81548173ffffffffffffffffffffffffffffffffffffffff021916908373ffffffffffffffffffffffffffffffffffffffff160217905550600560003373ffffffffffffffffffffffffffffffffffffffff1673ffffffffffffffffffffffffffffffffffffffff168152602001908152602001600020600081548092919060010191905055505050505050565b60015481565b6000600154905090565b60026020528060005260406000206000915054906101000a900473ffffffffffffffffffffffffffffffffffffffff1681565b60036020528060005260406000206000915090508060000190806001019080600201908060030154905084565b8154818355818115116108fa576004028160040283600052602060002091820191016108f9919061097f565b5b505050565b828054600181600116156101000203166002900490600052602060002090601f016020900481019282601f1061094057805160ff191683800117855561096e565b8280016001018555821561096e579182015b8281111561096d578251825591602001919060010190610952565b5b50905061097b91906109d6565b5090565b6109d391905b808211156109cf576000808201600061099e91906109fb565b6001820160006109ae91906109fb565b6002820160006109be91906109fb565b600382016000905550600401610985565b5090565b90565b6109f891905b808211156109f45760008160009055506001016109dc565b5090565b90565b50805460018160011615610100020316600290046000825580601f10610a215750610a40565b601f016020900490600052602060002090810190610a3f91906109d6565b5b505600a165627a7a72305820c95d1259377ac5a8b1f19630c2bc1f28b151ab89cc5526be73d079a6028f6e070029",
  "source": "pragma solidity ^0.4.18;\n\ncontract Collection{\n\n\tstruct Collectible{\n\t\tstring name;\n\t\tstring desc;\n\t\tstring imgLink;\n\t\tuint price;\n\n\t}\n\n\tmodifier onlyOwnerOf(uint _collectibleId) {\n\t\trequire(msg.sender == collectibleToOwner[_collectibleId]);\n\t\t_;\n\t}\n\n\tCollectible[] public colls;\n\n\tuint public state;\n\tmapping (uint => address) public creators;\n\tmapping (uint => Collectible) public Collectibles;\n    mapping (uint => address) public collectibleToOwner;\n    mapping (address => uint) ownerCollectibleCount;\n\n    function _createCol(string name, string desc, uint price, string imgLink) public{\n    \tstate++;\n    \tuint id = colls.push(Collectible(name, desc, imgLink, price));\n    \tcreators[id] = msg.sender;\n    \tcollectibleToOwner[id] = msg.sender;\n        ownerCollectibleCount[msg.sender]++;\n    }\n\n    function getCol() public view returns (uint) {\n    \treturn state;\n    }\n\n}",
  "sourcePath": "/Users/zeeshanhanif/CornellTech/StartupStudio/studio/contracts/Collection.sol",
  "compiler": {
    "name": "solc",
    "version": "0.4.19+commit.c4cbbb05.Emscripten.clang"
  },
  "schemaVersion": "2.0.0",
  "updatedAt": "2018-03-22T22:02:02.752Z"
}